:100000000C9434000C943E000C943E000C943E0082
:100010000C943E000C943E000C943E000C943E0068
:100020000C943E000C943E000C943E000C943E0058
:100030000C943E000C943E000C943E000C943E0048
:100040000C943E000C943E000C943E000C943E0038
:100050000C943E000C943E000C943E000C943E0028
:100060000C943E000C943E0011241FBECFEFD8E04C
:10007000DEBFCDBF0E9440000C9457000C940000DE
:10008000259A2D9A80E090E0A4E0B0E0000001976E
:10009000A109B109D9F785B115B880E090E0A4E0D5
:1000A000B0E000000197A109B109D9F7EACFF894AF
:0200B000FFCF80
:00000001FF
